:1000000071C0000090C000008EC000008CC00000D5
:100010008AC0000088C0000086C0000084C00000C4
:1000200082C0000080C000007EC000007CC00000D4
:100030007AC0000078C0000076C0000074C00000E4
:1000400072C0000015C200006EC000006CC000004D
:100050006AC0000068C0000066C0000064C0000004
:1000600062C00000A7C000005FC000005CC00000CC
:100070005AC0000058C0000056C0000054C0000024
:1000800052C0000050C000004EC000004CC0000034
:100090004AC0000048C0000046C0000044C0000044
:1000A00042C0000040C000003EC000003CC0000054
:1000B0003AC0000038C0000036C0000034C0000064
:1000C00032C0000030C000002EC000002CC0000074
:1000D0002AC0000028C0000026C0000024C0000084
:1000E00022C0000011241FBECFEFD1E2DEBFCDBF82
:1000F00000E00CBF13E0A0E0B2E0E8EBFFE200E0BC
:100100000BBF02C007900D92A831B107D9F71FE1CC
:10011000A8E1B3E001C01D92A032B107E1F70E944F
:100120005F170C94DA176CCF1F920F920FB60F92D5
:100130000BB60F9211242F933F934F935F936F93BE
:100140007F938F939F93AF93BF93EF93FF93DF932F
:10015000CF930F920F92CDB7DEB780911A03909193
:100160001B03BE016F5F7F4FAE014E5F5F4F6ED3CB
:10017000813021F489818093C60005C08091C1003F
:100180008F7D8093C1000F900F90CF91DF91FF91F1
:10019000EF91BF91AF919F918F917F916F915F91FF
:1001A0004F913F912F910F900BBE0F900FBE0F906C
:1001B0001F9018951F920F920FB60F920BB60F92C9
:1001C00011242F933F934F935F936F937F938F935C
:1001D0009F93AF93BF93EF93FF93DF93CF930F92D0
:1001E0000F92CDB7DEB78091C0008C7119F407C0B3
:1001F0008091C6008091C00087FDFACF14C0809125
:10020000C600898380911803909119031A82BE0158
:100210006F5F7F4FAE014E5F5F4F20E063D38A81F7
:10022000882309F027D10F900F90CF91DF91FF9194
:10023000EF91BF91AF919F918F917F916F915F915E
:100240004F913F912F910F900BBE0F900FBE0F90CB
:100250001F90189510921C038FEF84B995B180916F
:100260001C03892385B908950F931F93883070F478
:1002700001E010E002C0000F111F8A95E2F7BCD523
:1002800003B985B180931C030E94820C1F910F91CA
:100290000895FC0191E1908322E2229383E382930B
:1002A000629372931292129280E882931292129247
:1002B000129282E0829383E0829384E0829385E0CD
:1002C000829386E0829387E0829388E0829389E03C
:1002D000829380E18293929382E1829383E182937D
:1002E00084E1829385E1829386E1829387E1829320
:1002F00088E1829389E1829380E2829381E2829312
:10030000229383E282934293529386E2829387E21E
:10031000829388E2829389E2829380E3829381E3ED
:1003200082933197CF0108951092890089EF8093CD
:100330008800109280008BE080938100EFE6F0E06F
:10034000808182608083A091791EB0917A1ECD91C8
:10035000CDBFDD91DEBFFF91EF91DF91CF91BF91D6
:10036000AF919F918F917F916F915F914F913F914D
:100370002F911F910F91FF90EF90DF90CF90BF9042
:10038000AF909F908F907F906F905F904F903F9035
:100390002F901F900F900CBE0F900BBE0F900FBEB2
:1003A0000F90089581E008950F920FB6F8940F9280
:1003B0000BB60F920CB60F921F9211242F923F9200
:1003C0004F925F926F927F928F929F92AF92BF9265
:1003D000CF92DF92EF92FF920F931F932F933F9351
:1003E0004F935F936F937F938F939F93AF93BF933D
:1003F000CF93DF93EF93FF93A091791EB0917A1E74
:100400000DB60D920EB60D920E94A20B882309F034
:100410008DD5A091791EB0917A1ECD91CDBFDD9181
:10042000DEBFFF91EF91DF91CF91BF91AF919F918F
:100430008F917F916F915F914F913F912F911F917C
:100440000F91FF90EF90DF90CF90BF90AF909F9073
:100450008F907F906F905F904F903F902F901F9064
:100460000F900CBE0F900BBE0F900FBE0F90089513
:100470009BDF18950F920FB6F8940F920BB60F9260
:100480000CB60F921F9211242F923F924F925F92BF
:100490006F927F928F929F92AF92BF92CF92DF9294
:1004A000EF92FF920F931F932F933F934F935F937E
:1004B0006F937F938F939F93AF93BF93CF93DF936C
:1004C000EF93FF93A091791EB0917A1E0DB60D9215
:1004D0000EB60D922BD5A091791EB0917A1ECD91BA
:1004E000CDBFDD91DEBFFF91EF91DF91CF91BF9145
:1004F000AF919F918F917F916F915F914F913F91BC
:100500002F911F910F91FF90EF90DF90CF90BF90B0
:10051000AF909F908F907F906F905F904F903F90A3
:100520002F901F900F900CBE0F900BBE0F900FBE20
:100530000F900895892B41F06BEA70E080E090E025
:1005400040E052E00C945C170895CF93DF93EC01E8
:1005500053D480911F0390912003892B31F482E2C0
:1005600093E09093200380931F0320911D0330910B
:100570001E03CE01820F931F4BE18735940770F461
:100580002817390758F4C0911F03D0912003C20FD8
:10059000D31F90931E0380931D0302C0C0E0D0E0E0
:1005A0000E94820CCE01DF91CF910895FC019C0145
:1005B0002D5F3F4F328321838FEF9FEF948383839F
:1005C000368325833087278310820895FC011186A6
:1005D00010860895AC01FC01A181B281FB01B383B7
:1005E000A28314968D919C9115979583848314967C
:1005F000ED91FC9115977383628315967C936E93AE
:100600001497FB0151874087FA0180818F5F8083B7
:100610000895CF93DF939C01EB01488159818FEFBF
:100620004F3F580721F4F901A781B0850DC0D901CA
:1006300013961296ED91FC91139780819181481742
:10064000590710F0DF01F5CF1296ED91FC91139749
:10065000FB83EA83D583C483BD83AC831396DC9389
:10066000CE93129739872887F90180818F5F808325
:10067000DF91CF910895CF93DF93DC011896CD9150
:10068000DC91199712964D915C91139714968D9168
:100690009C911597FA019583848314962D913C9132
:1006A0001597F9015383428389819A818A179B07A1
:1006B00011F43A83298319961C921E921897888107
:1006C00081508883DF91CF910895EF92FF921F931D
:1006D000CF93DF93EC010FB6F8940F921E8D91E14A
:1006E000E92EF12CEC0EFD1E09C08989882341F00A
:1006F000C70173D5882309F090D311501116ACF3BC
:100700008FEF8E8F0F900FBE0FB6F8940F921D8D46
:1007100088E0E82EF12CEC0EFD1E09C088858823A8
:1007200041F0C7015AD5882309F077D3115011162B
:10073000ACF38FEF8D8F0F900FBEDF91CF911F9194
:10074000FF90EF900895CF93DF93EC010FB6F894EC
:100750000F928D8D8F3F09F41D8E8E8D8F3F09F482
:100760001E8E0F900FBE8A8D882319F4CE014196FC
:10077000A0D7CE01AADFDF91CF9108950F931F93E9
:10078000CF93DF93EC01042F1A8D4C8D4423C1F1DC
:100790000023B1F48C819D8150E00E94D1178C8D93
:1007A0002C813D81280F311D3D832C838A819B81C3
:1007B0002817390728F1888199819D838C8320C06F
:1007C0008E819F8150E00E94D1178C8D90E044274C
:1007D0005527481B590B8E819F81840F951F9F833E
:1007E0008E83288139818217930730F48A819B8117
:1007F000840F951F9F838E83023011F411111150C5
:100800001F5F1A8F80E0DF91CF911F910F910895A4
:10081000FC01562FA72F248D2223B9F086819781C2
:10082000820F911D978386832281338182179307DC
:1008300020F08081918197838683448D66817781C2
:10084000852F9A2F50E00C94D1170895CF92DF9204
:10085000EF92FF920F931F93CF93DF937B016A0177
:10086000EC01009741F460EA75E080E090E04DE231
:1008700052E00E945C17E114F10419F48C8D882376
:1008800041F51A8D112311F480E01AC00D8DCE01AF
:10089000B701BEDF11501A8F0F3F79F48885882386
:1008A00071F0CE01089699D4882349F0C114D1047F
:1008B00031F081E0F601808303C00F5F0D8F81E08E
:1008C000DF91CF911F910F91FF90EF90DF90CF902C
:1008D000089561EA75E080E090E04DE252E00E9408
:1008E0005C17CFCFCF92DF92EF92FF920F931F93BF
:1008F000CF93DF937B016A01022FEC01009741F453
:100900006FE973E080E090E04DE252E00E945C17F6
:10091000E114F10419F48C8D882379F5023019F46F
:100920008B8D813099F59A8D8B8D981720F0023040
:1009300011F080E019C01E8DCE01B701402F1EDFDF
:100940001F3F79F48989882371F0CE01419645D4FF
:10095000882349F0C114D10431F081E0F60180838D
:1009600003C01F5F1E8F81E0DF91CF911F910F9118
:10097000FF90EF90DF90CF90089560EA73E080E001
:1009800090E04DE252E00E945C17C8CF61EA73E04C
:1009900080E090E04DE252E00E945C17C4CF6F927D
:1009A0007F928F929F92AF92BF92CF92DF92EF92FF
:1009B000FF920F931F93DF93CF9300D00F920F926C
:1009C000CDB7DEB74B015D834C83E22E8C010097DF
:1009D00041F46CED74E080E090E04DE252E00E9462
:1009E0005C178114910429F4F801848D882309F09F
:1009F0009CC017D2882329F48C819D81892B09F012
:100A00009DC041E1A42EB12CA00EB11E20E06E01CC
:100A10000894C11CD11C34E0632E712C6C0E7D1E19
:100A200001C021E00FB6F8940F92F801F28CFF207C
:100A3000F9F0C680D780C801B401EADEEE2049F49F
:100A4000FA94F801F28E8085882371F0C801089627
:100A500007C0F801D782C6828189882329F0C501A1
:100A6000BCD3882309F006DD0F900FBE81E049C09A
:100A70008C819D81892B21F40F900FBE80E041C0B5
:100A8000222311F4C601F0D10F900FBEB5D10FB6DD
:100A9000F8940F92F801858D8F3F09F4158EF801B7
:100AA000868D8F3F09F4168E0F900FBEC601B301DD
:100AB000F4D18823C9F40FB6F8940F92F801828D0F
:100AC0000F900FBE882361F46C817D81C50119D61A
:100AD000C801FBDD17D7882309F0A3CFCBDCA1CF5A
:100AE000C801F3DD0FD79DCFC801EFDD0BD70FB6DF
:100AF000F8940F92F801828D0F900FBE882309F0B1
:100B000090CF0F900F900F900F900F90CF91DF919B
:100B10001F910F91FF90EF90DF90CF90BF90AF901B
:100B20009F908F907F906F9008956DED74E080E0BE
:100B300090E04DE252E00E945C175BCF60EE74E003
:100B400080E090E04DE252E00E945C175ACF6F9235
:100B50007F928F929F92AF92BF92CF92DF92FF923D
:100B60000F931F93DF93CF9300D00F920F92CDB7C7
:100B7000DEB75B015D834C83F22E8C01009741F45C
:100B800069ED72E080E090E04DE252E00E945C1777
:100B9000A114B10429F4F801848D882309F096C0CA
:100BA000F2E0FF1629F4F801838D813009F097C037
:100BB00038D1882329F48C819D81892B09F098C034
:100BC00068E0C62ED12CC00ED11E20E04E01089444
:100BD000811C911C54E0652E712C6C0E7D1E01C091
:100BE00021E00FB6F8940F92F801928D838D98173B
:100BF00018F0F2E0FF16B1F4C801B5014F2DBEDDCB
:100C0000982FF8018189882331F0C8014196E5D2F7
:100C1000882321F002C0992309F02CDC0F900FBE2D
:100C200081E041C08C819D81892B19F40F900FBE0A
:100C300039C0222311F4C40117D10F900FBEDCD0AC
:100C40000FB6F8940F92F801858D8F3F09F4158E39
:100C5000F801868D8F3F09F4168E0F900FBEC401E8
:100C6000B3011BD18823D9F40FB6F8940F92F80181
:100C7000928D0F900FBEF801838D981761F46C81EF
:100C80007D81C6013ED5C80120DD3CD6882309F010
:100C9000A7CFF0DBA5CFC80118DD34D6A1CFC8019E
:100CA00014DD30D680E00F900F900F900F900F90D2
:100CB000CF91DF911F910F91FF90DF90CF90BF9068
:100CC000AF909F908F907F906F9008956AED72E043
:100CD00080E090E04DE252E00E945C1761CF6BED46
:100CE00072E080E090E04DE252E00E945C1760CF3D
:100CF0006EED72E080E090E04DE252E00E945C1701
:100D00005FCF1F93CF93DF93162FEC01009741F431
:100D10006BE171E080E090E04DE252E00E945C17F0
:100D20000FB6F8940F926C8D2B8D629FC001112429
:100D300048815981840F951F9B838A831A8E5D8316
:100D40004C8330E02150304070E0269FC001279F47
:100D5000900D369F900D1124480F591F5F834E83CD
:100D60008FEF8D8F8E8F112351F48885882369F042
:100D7000CE01089632D2882341F07CDB06C0CE013A
:100D8000089614DCCE01419611DC0F900FBE81E075
:100D9000DF91CF911F9108950F931F93CF93DF930E
:100DA000082F162F882341F468E871E080E090E076
:100DB0004DE252E00E945C17112319F480E090E0AC
:100DC00003C0109FC00111244F96BFDBEC010097B8
:100DD00069F0112319F49983888303C04F9699838E
:100DE00088830B8F1C8FCE0161E08BDFCE01DF91FA
:100DF000CF911F910F91089580917B1E8F5F8093FB
:100E00007B1E08950FB6F8940F9220917E1E3091AC
:100E10007F1E0F900FBEC901089581E080937D1E53
:100E200008958091821E882311F481E008958091B5
:100E30007B1E882311F080E0089582E008950097DA
:100E400029F4E091791EF0917A1E01C0FC010FB6E1
:100E5000F8940F9285A1823011F080E002C015A2B3
:100E600081E00F900FBE0895CF93DF93EC010097C0
:100E700041F461EC7BE080E090E048E452E00E94C5
:100E80005C178091831E888380917E1E90917F1EC7
:100E90009A838983DF91CF9108950F931F93CF9306
:100EA000DF93EC018B01009741F46BEC7BE080E079
:100EB00090E048E452E00E945C170115110541F4EE
:100EC0006CEC7BE080E090E048E452E00E945C172C
:100ED0000FB6F8940F9240917E1E50917F1E909114
:100EE000831E8881981729F089819A8148175907AC
:100EF000A8F429813A81F80160817181CA01821BBD
:100F0000930B8617970750F4241B350B260F371FBA
:100F100031832083CE01A8DF80E001C081E00F9003
:100F20000FBEDF91CF911F910F9108950F931F93E3
:100F300080917B1E882321F081E080937D1E3BC041
:100F400010927D1E10917C1E09E00BC0112341F40C
:100F500066EF7AE080E090E048E452E00E945C179F
:100F60001150109FD0011124A757B14E8C918823A6
:100F700069F31196ED91FC9112970280F381E02DB7
:100F80001296FC93EE931197CD010396E817F9079B
:100F900031F48281938112969C938E9311971196CE
:100FA000ED91FC9112978681978190937A1E8093A0
:100FB000791E10937C1E1F910F910895EF92FF925E
:100FC0000F931F93CF93DF93EC017B01009741F4C4
:100FD00063EE71E180E090E048E452E00E945C172B
:100FE0002DA182E08DA389A19AA1ABA1BCA10196FC
:100FF000A11DB11D89A39AA3ABA3BCA32130E1F528
:101000008C899D89892B41F069E072E180E090E054
:1010100048E452E00E945C1780917B1E8823A1F473
:101020008E010E5F1F4FC80126DB9E8980917C1EBA
:10103000891710F490937C1E89E0989FC0011124B9
:101040008757914EB80105C0BE01645F7F4F83ECA6
:101050009EE1C0DAE091791EF0917A1E9E89868920
:10106000891750F4E114F10421F081E0F701808345
:1010700003C081E080937D1EDF91CF911F910F917E
:10108000FF90EF9008958F929F92AF92BF92CF9270
:10109000DF92EF92FF920F931F93CF93DF93EC01B8
:1010A0004A015B016901009741F468E671E180E063
:1010B00090E048E452E00E945C170115110549F0E8
:1010C00089A19AA1ABA1BCA1F80180839183A283DD
:1010D000B3832DA182E08DA3F2E0CF16D104D9F025
:1010E00083E0C816D10428F4E1E0CE16D10439F526
:1010F00009C0F3E0CF16D104F1F084E0C816D104A2
:10110000F1F415C089A19AA1ABA1BCA188299929A4
:10111000AA29BB2907C089A19AA1ABA1BCA10196AC
:10112000A11DB11D89A39AA3ABA3BCA308C0223003
:1011300011F480E045C089A29AA2ABA2BCA22130E2
:1011400009F03DC08C899D89892B41F06FEA71E1DE
:1011500080E090E048E452E00E945C1780917B1EA2
:101160008823A1F48E010E5F1F4FC80184DA9E8987
:1011700080917C1E891710F490937C1E89E0989FC3
:10118000C00111248757914EB80105C0BE01645FAC
:101190007F4F83EC9EE11EDAE091791EF0917A1E7A
:1011A0009E898689891758F4E114F10421F081E0C1
:1011B000F701808305C081E080937D1E01C081E03E
:1011C000DF91CF911F910F91FF90EF90DF90CF9023
:1011D000BF90AF909F908F9008950F931F93CF93E0
:1011E000DF93DC011596ED91FC911697C681D781AE
:1011F000209741F461E67BE080E090E048E452E033
:101200000E945C178E01045F1F4FC80134DA809181
:101210007B1E882399F48E010E5F1F4FC8012BDAC5
:101220009E8980917C1E891710F490937C1E89E022
:10123000989FC00111248757914E02C083EC9EE114
:10124000B801C8D9E091791EF0917A1E9E898689ED
:10125000891710F080E003C081E080937D1EDF914C
:10126000CF911F910F910895AF92BF92CF92DF92CD
:10127000EF92FF920F931F93CF93DF93EC015A01EC
:101280006B017901009741F46DEF70E180E090E02F
:1012900048E452E00E945C170FB6F8940F920115D3
:1012A000110549F089A19AA1ABA1BCA1F8018083E5
:1012B0009183A283B3832DA182E08DA3F2E0EF1688
:1012C000F104D9F083E0E816F10428F4E1E0EE1629
:1012D000F10439F509C0F3E0EF16F104F1F084E010
:1012E000E816F104F1F415C089A19AA1ABA1BCA143
:1012F0008A299B29AC29BD2907C089A19AA1ABA144
:10130000BCA10196A11DB11D89A39AA3ABA3BCA347
:1013100008C0223011F480E030C0A9A2BAA2CBA24A
:10132000DCA2213049F58E010E5F1F4FC801A3D901
:101330009E8980917C1E891710F490937C1E89E011
:10134000989FC00111248757914EB80143D98C89C9
:101350009D89892B41F065E371E180E090E048E4EC
:1013600052E00E945C17E091791EF0917A1E9E89EE
:101370008689891708F47ED881E00F900FBEDF912F
:10138000CF911F910F91FF90EF90DF90CF90BF9082
:10139000AF900895FF920F931F93CF93DF93EC01CB
:1013A000643048F060E875E080E090E048E452E0A6
:1013B0000E945C1763E00FB6F8940F92209721F417
:1013C000C091791ED0917A1E2E89261709F44BC040
:1013D000261790F48091791E90917A1EC817D9072C
:1013E00011F4FF2413C0E091791EF0917A1EFF24BE
:1013F0008689681758F008C08091791E90917A1EEE
:10140000FF24C817D90711F4FF24F3946E8B8C8541
:101410009D8597FD06C084E090E0861B91099D871D
:101420008C8789E0289FC00111248757914E2A8517
:101430003B8528173907A1F48E010E5F1F4FC801A5
:101440001AD99E8980917C1E891710F490937C1E76
:1014500089E0989FC00111248757914EB801BAD8EE
:10146000FF2009F007D80F900FBEDF91CF911F9199
:101470000F91FF9008950F931F93CF93DF93EC018B
:1014800000917E1E10917F1E8091791E90917A1E90
:101490000296F1D8C00FD11FE091791EF0917A1E0B
:1014A000D383C283C017D10760F48091C11E90918D
:1014B000C21E6091791E70917A1E6E5F7F4FA9D80F
:1014C00016C08091BF1E9091C01E6091791E7091D0
:1014D0007A1E6E5F7F4F9DD88091801E9091811EF5
:1014E000C817D90720F4D093811EC093801EDF91C6
:1014F000CF911F910F9108956F927F928F929F923B
:10150000AF92BF92CF92DF92EF92FF920F931F9311
:10151000CF93DF935B016C0139014A01E8010FB6FB
:10152000F8940F92E091791EF0917A1E85A1823095
:1015300011F1E091791EF0917A1E81A192A1A3A1EF
:10154000B4A1A094B094C094D0948A219B21AC21E2
:10155000BD2181A392A3A3A3B4A3E091791EF0912E
:101560007A1E81E085A3E114F10429F0C70161E04E
:1015700082DF0E943A020F900FBE0FB6F8940F92CE
:10158000209761F0E091791EF0917A1E81A192A1DD
:10159000A3A1B4A188839983AA83BB83E091791E18
:1015A000F0917A1E85A1813011F480E015C0E091A0
:1015B000791EF0917A1E81A192A1A3A1B4A1609499
:1015C00070948094909486219721A821B92181A3B9
:1015D00092A3A3A3B4A381E0E091791EF0917A1EB7
:1015E00015A20F900FBEDF91CF911F910F91FF9029
:1015F000EF90DF90CF90BF90AF909F908F907F90B3
:101600006F9008951F93182F0FB6F8940F92E091E2
:10161000791EF0917A1E81A192A1A3A1B4A1009795
:10162000A105B10571F4E091791EF0917A1E81E077
:1016300085A36115710529F0CB0161E01CDF0E94D3
:101640003A020F900FBE0FB6F8940F92E091791EF8
:10165000F0917A1E21A132A143A154A12115310597
:1016600041055105D9F0112349F0E091791EF0911F
:101670007A1E11A212A213A214A210C0E091791E28
:10168000F0917A1E215030404040504021A332A3B7
:1016900043A354A32F5F3F4F4F4F5F4FE091791EFD
:1016A000F0917A1E15A20F900FBEB901CA011F91C9
:1016B0000895FF920F931F93CF93DF93EC018B015B
:1016C000F42E009741F461E37BE080E090E048E491
:1016D00052E00E945C176091791E70917A1E645FDF
:1016E0007F4FCE010E94EA02FF2011F00FEF1FEFA3
:1016F000C8016F2DC0DEDF91CF911F910F91FF9038
:1017000008950F931F93CF93DF93EC018B01009704
:1017100041F466E07BE080E090E048E452E00E9423
:101720005C176091791E70917A1E645F7F4FCE01C5
:101730000E940903C80161E09EDEDF91CF911F91F5
:101740000F910895CF92DF92EF92FF920F931F9324
:10175000CF93DF9380917B1E882309F0BBC000915B
:101760007E1E10917F1E0F5F1F4F10937F1E0093F0
:101770007E1E01151105F1F5E091BF1EF091C01E0E
:101780008081882341F069ED79E080E090E048E4D1
:1017900052E00E945C172091BF1E3091C01E8091C4
:1017A000C11E9091C21E9093C01E8093BF1E3093A5
:1017B000C21E2093C11E8091831E8F5F8093831E63
:1017C000E091BF1EF091C01E8081882319F48FEF35
:1017D0009FEF0CC0E091BF1EF091C01E0580F68106
:1017E000E02D0680F781E02D828193819093811E08
:1017F0008093801E8091801E9091811E081719078A
:1018000008F44BC0DD2449E0C42EE091BF1EF091E6
:10181000C01E8081882319F48FEF9FEF0EC0E091E6
:10182000BF1EF091C01E0580F681E02DC681D781D4
:101830008A819B810817190728F49093811E809351
:10184000801E2CC032E0E32EF12CEC0EFD1EC701F1
:101850000E943B038C899D89892B21F0CE010C9637
:101860000E943B039E8980917C1E891710F49093FF
:101870007C1E9C9DC00111248757914EB7010E9488
:10188000EA02E091791EF0917A1E9E898689981766
:1018900008F4BBCFDD24D394B8CFDD24E091791ECA
:1018A000F0917A1E868990E0FC0123E0EE0FFF1F85
:1018B0002A95E1F7E80FF91FE757F14E8081823052
:1018C00010F0DD24D3948091841E882359F40E9463
:1018D0005A1708C08091841E8F5F8093841E0E94D7
:1018E0005A17DD2480917D1E882311F0DD24D394C6
:1018F0008D2DDF91CF911F910F91FF90EF90DF9091
:10190000CF900895EF92FF920F931F93CF93DF93A1
:1019100080917B1E882341F468EE77E080E090E0C0
:1019200048E452E00E945C170FB6F8940F92809141
:101930007B1E815080937B1E80917B1E882309F043
:101940006BC08091851E882309F466C0C0E0D0E09A
:1019500059E0E52EFF24F39429C0E091C81EF091D0
:10196000C91EC681D781CE010C960E943B038E0111
:101970000E5F1F4FC8010E943B039E8980917C1E11
:10198000891710F490937C1E9E9DC00111248757E7
:10199000914EB8010E94EA02E091791EF0917A1E00
:1019A0009E898689981710F0F0927D1E8091C31E43
:1019B000882399F6CD2BD1F0E091BF1EF091C01E87
:1019C0008081882319F48FEF9FEF0CC0E091BF1E38
:1019D000F091C01E0580F681E02D0680F781E02D94
:1019E000828193819093811E8093801E1091841E2A
:1019F000112351F001E0A6DE882311F000937D1E33
:101A00001150C9F71092841E80917D1E882321F009
:101A10000E943A0281E001C080E00F900FBEDF918A
:101A2000CF911F910F91FF90EF9008950F931F9307
:101A3000CF93DF93EC018B01009741F469E774E0E9
:101A400080E090E048E452E00E945C170115110527
:101A500041F46AE774E080E090E048E452E00E94DC
:101A60005C1780917B1E882341F06BE774E080E077
:101A700090E048E452E00E945C1780917B1E8F5FEB
:101A800080937B1E40917E1E50917F1E288139815C
:101A9000B901600F711F4217530728F462177307CB
:101AA00028F080E008C06217730720F080E0461736
:101AB000570708F481E079836883882329F0CB01F4
:101AC000841B950B60E0D7DC1DDF882311F40E9496
:101AD0003A02DF91CF911F910F9108958091891E55
:101AE000823010F00E943A020E945917F7CF4F92AD
:101AF0005F926F927F928F929F92AF92BF92CF929E
:101B0000DF92EF92FF920F931F93CF93DF932C01FD
:101B1000162F972E6A0139015701CA010E94A502AA
:101B20007C01009799F086E290E00E94A502EC010A
:101B3000009749F0F88EEF8A812F992D9C01F901C9
:101B4000DE0190E005C0C7010E949A028FEFB3C08A
:101B5000808159968C9359978081882329F09F5FC3
:101B6000319611969830A1F718A2043008F003E0DE
:101B70000E8B72E0872E912C8C0E9D1EC4010E944C
:101B8000E602CE010C960E94E602D987C88784E05F
:101B900090E0801B91099D878C87DB8BCA8B19A2F3
:101BA0001AA21BA21CA21DA20894C108D108C70139
:101BB0008C0D9D1DB201A3010E9449019983888368
:101BC000A114B10419F0F501D183C0830FB6F894C4
:101BD0000F928091851E8F5F8093851E8091791E64
:101BE00090917A1E892B89F5D0937A1EC093791E25
:101BF0008091851E8130C9F589E89EE10E94D60258
:101C000082E99EE10E94D6028BE99EE10E94D60203
:101C100084EA9EE10E94D6026DEAE62E6EE1F62E7F
:101C2000C7010E94D60206EB1EE1C8010E94D6023F
:101C300083EC9EE10E94D602F092C01EE092BF1E8D
:101C40001093C21E0093C11E10C08091821E882373
:101C500061F4E091791EF0917A1E96898E89891738
:101C600020F0D0937A1EC093791E8091881E8F5FDA
:101C70008093881E9E8980917C1E891710F4909312
:101C80007C1E89E0989FC00111248757914EB401B2
:101C90000E94EA020F900FBE8091821E882351F0AD
:101CA000E091791EF0917A1E96898E89981710F42A
:101CB0000E943A0281E0DF91CF911F910F91FF9036
:101CC000EF90DF90CF90BF90AF909F908F907F90DC
:101CD0006F905F904F900895EF92FF920F938EE672
:101CE0009DE063E672E045E550E020E030E000E092
:101CF000E6E8EE2EEEE1FE2EFADE8130A1F4E8D029
:101D0000813089F4F8948FEF9FEF9093811E809338
:101D1000801E81E08093821E10927F1E10927E1E94
:101D20000E9494010AC08F3F41F464E877E080E0AC
:101D300090E048E452E00E945C170F91FF90EF9012
:101D400008959F92AF92BF92CF92DF92EF92FF924F
:101D50000F931F93DF93CF9300D00F920F92CDB7C5
:101D6000DEB77C01962E6A015901009741F466EABC
:101D700071E080E090E048E652E00E945C178091BC
:101D8000CE1E9091CF1E009711F480E023C099825F
:101D9000DB82CA82FD82EC8225E02915A4F041D8BD
:101DA0002091CE1E3091CF1EBE016F5F7F4F8230DB
:101DB00019F4C901A80103C0C90140E050E020E0C6
:101DC0000E94A70507C0BE016F5F7F4FA50120E0FD
:101DD0000E9472040F900F900F900F900F90CF9170
:101DE000DF911F910F91FF90EF90DF90CF90BF9008
:101DF000AF909F900895EF92FF920F931F930FB6AD
:101E0000F8940F928091CE1E9091CF1E892BE9F409
:101E100082EDE82E8EE1F82EC7010E94D6020BED6E
:101E20001EE1C8010E94D602F092E51EE092E41E77
:101E30001093E71E0093E61E84E165E040E00E94F7
:101E4000CC069093CF1E8093CE1E0F900FBE1F9195
:101E50000F91FF90EF9008959F92AF92BF92CF9213
:101E6000DF92EF92FF920F931F93CF93DF936C015A
:101E70007B01942E590183E190E00E94A502EC01C0
:101E80000097C9F0E114F10441F46CE871E080E0DE
:101E900090E048E652E00E945C17ADDFD982C8822C
:101EA000FD86EC869E86B88AAF861A8B098BCE019A
:101EB00002960E94E602CE01DF91CF911F910F9111
:101EC000FF90EF90DF90CF90BF90AF909F900895DC
:101ED000EF92FF920F938FDF8091CE1E9091CF1ED5
:101EE000892B81F08FE290E164E872E04AEA50E0E9
:101EF00020E030E003E0ECECEE2EEEE1FE2EF7DD2C
:101F0000882341F463E371E080E090E048E652E02A
:101F1000D3D780E00F91FF90EF900895AF92BF92DA
:101F2000CF92DF92EF92FF920F931F93CF93DF93A5
:101F30005C010E9402077C018091D01E9091D11E0D
:101F4000E816F906D8F152C00580F681E02D00812F
:101F50001181C681D781F2E0CF2ED12CCC0EDD1EAF
:101F6000C6010E943B03E989FA89CE0119958E8545
:101F7000813021F58C859D85800F911F08171907E9
:101F800060F49B838A83D987C8878091E41E9091EF
:101F9000E51EB6010E94090311C0CE0160E0A80150
:101FA00020E030E000E010E0CCDE882339F462E984
:101FB00073E080E090E048E652E07ED7E091E41ED6
:101FC000F091E51E8081882309F0BECF8091E61E46
:101FD0009091E71E9093E51E8093E41EF093E71E18
:101FE000E093E61E81E0F501808302C0F5011082D6
:101FF000F092D11EE092D01EC701DF91CF911F91C8
:102000000F91FF90EF90DF90CF90BF90AF90089529
:10201000FC0173836283918780874617570768F0B6
:10202000421B530B8485958548175907B0F43296A7
:102030008091E61E9091E71E0BC04217530718F4DB
:102040006217730750F432968091E41E9091E51E5A
:10205000BF010E94090380E0089581E008958F92F6
:102060009F92AF92BF92CF92DF92EF92FF920F9327
:102070001F93DF93CF9300D000D0CDB7DEB75E01C2
:102080000894A11CB11CA2E08A2E912C8C0E9D1EDE
:10209000E091E41EF091E51EFF248081882329F45D
:1020A000FF24F39400E010E005C00580F681E02DE8
:1020B000008111810E94FC06C50130DF6C0189811D
:1020C000882309F05BC0FF2009F03DC0C016D1068F
:1020D00008F443C017DCE091E41EF091E51E058092
:1020E000F681E02DE680F780C70102960E943B034F
:1020F000D7011E968C911E978130E9F41C966D9144
:102100007C911D97600F711FC701A601980180DFA8
:10211000882389F0C70160E0A80120E030E000E0FA
:1021200010E00FDE882339F468E072E080E090E090
:1021300048E652E0C1D6D7015196ED91FC915297F5
:10214000C701199590C0FF24E091E61EF091E71EAB
:102150008081882311F4FF24F3940C191D098091C8
:10216000CE1E9091CF1EB8014F2D0E94A303CADB53
:10217000882309F078C00E943A0275C0C3DB73C09F
:102180008A8187FD70C00D811E81F801828593854B
:10219000892B21F0C80102960E943B03C501BEDED7
:1021A0007C018A81853009F45BC0863044F487FD68
:1021B0005AC0833054F0843009F055C037C088309D
:1021C00024F0893009F04FC031C02B813C81D80107
:1021D0001C966D917C911D97620F731FC801A7011A
:1021E00017DF882309F43FC0D8015196ED91FC9187
:1021F0005297C8011995F80186858130A1F544856B
:1022000055858B819C81480F591FC80160E020E0F3
:1022100030E000E010E095DD882329F561E273E00D
:1022200080E090E048E652E047D61DC08B819C815B
:10223000D8011D969C938E931C97892B39F468E3E3
:1022400073E080E090E048E652E036D6F80164851D
:1022500075856E0D7F1DC801A7019701D9DE03C0EA
:10226000C8010E949A028091CE1E9091CF1EB401A7
:1022700040E050E020E00E94CF04882309F080CFA6
:1022800007CF2091E81E3091E91E4091EA1E50913F
:10229000EB1E8091F41E9091F51EA091F61EB09158
:1022A000F71E82179307A407B50719F410921303BA
:1022B00010C08091E81E9091E91EA091EA1EB09195
:1022C000EB1E8093F41E9093F51EA093F61EB09320
:1022D000F71E8091EC1E9091ED1EA091EE1EB09124
:1022E000EF1E2091F01E3091F11E4091F21E509190
:1022F000F31E281739074A075B0750F4821B930B1C
:10230000A40BB50B0697A105B10510F010921303AD
:102310008091130308952091FE1E3091FF1E85E3E6
:102320009EE4AC01249FC001259F900D349F900D29
:10233000112401969093FF1E8093FE1E80E0089565
:10234000EF92FF920F931F93DF93CF9300D00F92E2
:10235000CDB7DEB78091F81E9091F91E892B09F454
:1023600070C08091FD1E8F5F8093FD1E82330CF440
:1023700068C01092FD1E8091FC1E813071F0823089
:1023800011F1882309F04AC08091FA1E9091FB1E3A
:1023900060E070E00E94DE0710C08091FA1E90910C
:1023A000FB1E40E050E060E070E022E030E000E042
:1023B00010E0EE24FF240E9443088091FC1E8F5FF2
:1023C0008093FC1E2BC08FEF90E0A0E0B0E08983EB
:1023D0009A83AB83BC838091FA1E9091FB1E40E0F0
:1023E00050E060E070E022E030E08E010F5F1F4FB0
:1023F000EE24FF240E94430889819A81AB81BC812D
:102400008F3F9105A105B10539F465E272E080E0E6
:1024100090E04CE852E050D51092FC1E8091EC1EEA
:102420009091ED1EA091EE1EB091EF1E0196A11DA0
:10243000B11D8093EC1E9093ED1EA093EE1EB09301
:10244000EF1E0F900F900F900F90CF91DF911F9183
:102450000F91FF90EF900895EF92FF920F9382E714
:1024600092E169EB72E045E550E020E030E000E009
:10247000EAEFEE2EEEE1FE2E3ADB8BE891E190934F
:10248000FF1E8093FE1E0F91FF90EF9008950F9313
:102490001F938091FA1E9091FB1E40E050E060E097
:1024A00070E022E030E000E010E00E9434090FB656
:1024B000F8940F928091EC1E9091ED1EA091EE1E6B
:1024C000B091EF1E0196A11DB11D8093EC1E90935B
:1024D000ED1EA093EE1EB093EF1E0F900FBE1F9146
:1024E0000F9108953F924F925F926F927F928F92D9
:1024F0009F92AF92BF92CF92DF92EF92FF920F9393
:102500001F93DF93CF93CDB7DEB728970FB6F8941C
:10251000DEBF0FBECDBF0E9402076C016FEF7FEFE1
:102520008FEF9FEF20E030E040E050E08E010F5F42
:102530001F4FE4E6EE2EF12C0E947C0A182F0E9419
:1025400002078C199D098436910510F4109213032B
:10255000112339F065EA70E080E090E04CE852E049
:10256000ABD489819A81AB81BC810097A105B1056B
:1025700039F066EA70E080E090E04CE852E09CD4EC
:102580008091FA1E9091FB1E41EA56E861E070E0EE
:1025900024E030E08E010B5F1F4F0E943409813030
:1025A00039F063EB70E080E090E04CE852E084D4D6
:1025B0008D819E81AF81B8850097A105B10539F065
:1025C00066EB70E080E090E04CE852E075D40E9449
:1025D00002076C016FEF7FEF8FEF9FEF20E030E09D
:1025E00040E050E08E010F5F1F4FB4E6EB2EF12C60
:1025F0000E947C0A182F0E9402078C199D098436BC
:10260000910510F010921303113039F063EC70E073
:1026100080E090E04CE852E04FD489819A81AB8110
:10262000BC81815A9648A140B04039F064EC70E01A
:1026300080E090E04CE852E03FD48091E81E909119
:10264000E91EA091EA1EB091EB1E0196A11DB11DDD
:102650008093E81E9093E91EA093EA1EB093EB1EB0
:102660008091FA1E9091FB1E41EA56E861E070E00D
:1026700024E030E000E010E00E943409813039F0BD
:1026800063ED70E080E090E04CE852E015D480917A
:10269000FA1E9091FB1E43EB55E160E070E024E0F0
:1026A00030E000E010E00E943409882339F066ED44
:1026B00070E080E090E04CE852E0FED36FEF7FEFF7
:1026C0008FEF9FEF20E030E040E050E08E010F5FA1
:1026D0001F4FEE24FF240E947C0A813039F06CEDFC
:1026E00070E080E090E04CE852E0E6D389819A8186
:1026F000AB81BC81815A9648A140B04039F06DED64
:1027000070E080E090E04CE852E0D6D38091FA1E71
:102710009091FB1E41EA56E861E070E023E030E072
:1027200000E010E00E943409813039F069EE70E079
:1027300080E090E04CE852E0BFD38091FA1E909187
:10274000FB1E43EB55E160E070E023E030E000E089
:1027500010E00E943409813039F06BEE70E080E0C7
:1027600090E04CE852E0A8D36FEF7FEF8FEF9FEF40
:1027700020E030E040E050E08E010F5F1F4FEE247C
:10278000FF240E947C0A813039F06DEE70E080E019
:1027900090E04CE852E090D389819A81AB81BC8172
:1027A000835B9541A040B04039F06EEE70E080E070
:1027B00090E04CE852E080D38091FA1E9091FB1E8D
:1027C00041EA56E861E070E020E030E000E010E02F
:1027D0000E943409813039F068EF70E080E090E0C9
:1027E0004CE852E069D36FEF7FEF8FEF9FEF20E06F
:1027F00030E040E050E08E010F5F1F4FEE24FF24D9
:102800000E947C0A89819A81AB81BC81835B95415E
:10281000A040B04039F06AEF70E080E090E04CE812
:1028200052E04AD3EE24FF248091FA1E9091FB1EC1
:1028300040E050E060E070E022E030E000E010E0D6
:102840000E943409813039F066E071E080E090E068
:102850004CE852E031D30894E11CF11C85E0E81605
:10286000F10411F76FEF7FEF8FEF9FEF20E030E083
:1028700040E050E08E010F5F1F4FEE24FF240E94C6
:102880007C0A813039F06AE071E080E090E04CE849
:1028900052E012D389819A81AB81BC81885B9541DA
:1028A000A040B04039F06BE071E080E090E04CE88F
:1028B00052E002D360E070E080E090E020E030E0A1
:1028C00040E050E08E010F5F1F4FEE24FF240E9476
:1028D0007C0A882339F06FE071E080E090E04CE8FA
:1028E00052E0EAD26FEF7FEF8FEF9FEF20E030E012
:1028F00040E050E06E010894C11CD11C8601EE241A
:10290000FF240E947C0AA1E04A2E512C612C712CDC
:102910008824992454013C2CCD2C8091FA1E90914E
:10292000FB1EB301A20121E030E000E010E00E94B4
:10293000340960E070E080E090E020E030E040E0CA
:1029400050E0032D1C2DEE24FF240E947C0A8130D0
:1029500039F068E271E080E090E04CE852E0ACD2FF
:102960000894811C911CA11CB11C89819A81AB81A6
:10297000BC818F5F9F4FAF4FBF4F29F0440C551C58
:10298000661C771CCACF80E288169104A104B104AA
:1029900039F063E371E080E090E04CE852E08CD2E3
:1029A00061E070E080E090E022E030E040E050E064
:1029B0008E010F5F1F4FE4E6EE2EF12C0E947C0A81
:1029C000882339F060E471E080E090E04CE852E068
:1029D00073D28091FA1E9091FB1E4FEF5FEF6FEF65
:1029E0007FEF20E030E000E010E00E94340960E07A
:1029F00070E080E090E020E030E040E050E08E01C8
:102A00000F5F1F4FEE24FF240E947C0A813039F0B3
:102A10006AE471E080E090E04CE852E04DD28981B8
:102A20009A81AB81BC818E5F9F4FAF4FBF4F39F012
:102A30006BE471E080E090E04CE852E03DD28091A0
:102A4000FA1E9091FB1E40E050E060E070E020E054
:102A500030E000E010E00E94340960E070E080E0C7
:102A600090E022E030E040E050E08E010F5F1F4F29
:102A7000EE24FF240E947C0A89819A81AB81BC816B
:102A80008E5F9F4FAF4FBF4F39F06AE571E080E036
:102A900090E04CE852E010D260E070E080E090E01E
:102AA00020E030E040E050E08E010F5F1F4FEE2449
:102AB000FF240E947C0A882339F060E671E080E000
:102AC00090E04CE852E0F8D189819A81AB81BC81D9
:102AD0008C5F9F4FAF4FBF4F39F061E671E080E0F0
:102AE00090E04CE852E0E8D18091FA1E9091FB1EF4
:102AF00040E050E060E070E021E030E08E010B5FEC
:102B00001F4F0E94340989819A81AB81BC818C5FFF
:102B10009F4FAF4FBF4F39F069E671E080E090E022
:102B20004CE852E0C9D160E070E080E090E02FEF27
:102B30003FEF4FEF5FEF8E010F5F1F4FEE24FF243B
:102B40000E947C0A8091FA1E9091FB1E40E050E0AA
:102B500060E070E021E030E08E010B5F1F4F0E94CB
:102B600034098D819E81AF81B8850097A105B1059B
:102B700039F06EE671E080E090E04CE852E09CD1E4
:102B800081E0C82ED12CE12CF12C88249924540109
:102B90006624772405E0402E512C4C0E5D1E80915A
:102BA000FA1E9091FB1EB701A60121E030E08201E0
:102BB0000E9434098D819E81AF81B885881699065F
:102BC000AA06BB0639F067E771E080E090E04CE8C8
:102BD00052E072D1D701C601880F991FAA1FBB1FEF
:102BE0000894611C711C27E06216710439F08C286E
:102BF0009D28AE28BF286C017D01D1CF6FEF7FEFFC
:102C00008FEF9FEF20E030E040E050E08E010F5F5B
:102C10001F4FEE24FF240E947C0A80E090E00E9477
:102C20001F07882339F063E871E080E090E04CE80A
:102C300052E042D18091FA1E9091FB1E41EA56E883
:102C400061E070E024E030E08E010B5F1F4F0E94D6
:102C5000340980E090E00E941F07813039F06BE872
:102C600071E080E090E04CE852E026D180E090E016
:102C70000E941F07882339F06CE871E080E090E043
:102C80004CE852E019D18091E81E9091E91EA09184
:102C9000EA1EB091EB1E0196A11DB11D8093E81EA6
:102CA0009093E91EA093EA1EB093EB1E6FEF7FEFA7
:102CB0008FEF9FEF20E030E040E050E000E010E0D8
:102CC000EE24FF240E947C0A82EC92E06AE570E028
:102CD00040E020E030E007E412E1BED89093F91E16
:102CE0008093F81EA5E38A2EAEE49A2E8091FE1EF4
:102CF0009091FF1E9C01289DC001299D900D389D3B
:102D0000900D112401969093FF1E8093FE1E8091DA
:102D1000F81E9091F91E64E04AE050E020E030E0B7
:102D20000FEF1FEF0ED88091FE1E9091FF1E9C01A9
:102D3000289DC001299D900D389D900D112401966C
:102D40009093FF1E8093FE1EFAE0CF2ED12C80E0E0
:102D5000B6010E94020B611571058105910599F07C
:102D60008091F01E9091F11EA091F21EB091F31E81
:102D70000196A11DB11D8093F01E9093F11EA093AA
:102D8000F21EB093F31E80E060E070E00E94020B40
:102D9000611571058105910599F08091F01E909162
:102DA000F11EA091F21EB091F31E0196A11DB11D5E
:102DB0008093F01E9093F11EA093F21EB093F31E29
:102DC000E090F01EF090F11E0091F21E1091F31EA3
:102DD00081E0B6010E94020B5B016C01AE0CBF1CCE
:102DE000C01ED11EA092F01EB092F11EC092F21E23
:102DF000D092F31E6091E81E7091E91E8091EA1E48
:102E00009091EB1E22E330E040E050E0A8D0611545
:102E100071058105910541F58091FA1E9091FB1E87
:102E200063E00E94CA09E090F01EF090F11E00914C
:102E3000F21E1091F31E81E06FEF7FEF0E94020BF4
:102E4000E60EF71E081F191FE092F01EF092F11E09
:102E50000093F21E1093F31E8091FA1E9091FB1EB8
:102E600060E00E94CA0911C081E06FEF7FEF0E940D
:102E7000020BA60EB71EC81ED91EA092F01EB0925D
:102E8000F11EC092F21ED092F31E8091E81E909126
:102E9000E91EA091EA1EB091EB1E0196A11DB11D85
:102EA0008093E81E9093E91EA093EA1EB093EB1E58
:102EB0001DCF089545CA089587E00C943401EF9220
:102EC000FF920F930E942A01A0E0BFE180911403BA
:102ED000909115039C01F90180E201900D928150BF
:102EE000E1F787E897E16BEC72E045E550E020E020
:102EF00030E003E0EE24FF240E94770DADDA0E945B
:102F00006C0E80E090E00F91FF90EF9008950F938A
:102F10001F93DF93CF930F920F92CDB7DEB70E942E
:102F200002079A8389838E010F5F1F4FC80164ECEB
:102F300079E00E94160DA5D98130C1F3A0E0BFE170
:102F400080911603909117039C01F90180E2019092
:102F50000D928150E1F786E00E943401E7CFA1E2B3
:102F60001A2EAA1BBB1BFD010DC0AA1FBB1FEE1F03
:102F7000FF1FA217B307E407F50720F0A21BB30B4E
:102F8000E40BF50B661F771F881F991F1A9469F7CA
:102F900060957095809590959B01AC01BD01CF0126
:102FA0000895FB01DC0102C001900D924150504098
:082FB000D8F70895F894FFCF53
:102FB8002E2E2F4672656552544F532F536F7572DC
:102FC80063652F706F727461626C652F4D656D4D0E
:102FD800616E672F686561705F312E63002E2E2F3A
:102FE8004672656552544F532F536F757263652F40
:102FF80071756575652E63002E2E2F4672656552B4
:10300800544F532F536F757263652F7461736B73CD
:103018002E630049444C45002E2E2F46726565529A
:10302800544F532F536F757263652F74696D6572B2
:10303800732E6300546D7220537663002E2E2F4634
:1030480072656552544F532F44656D6F2F436F6DF2
:103058006D6F6E2F4D696E696D616C2F5461736B66
:103068004E6F746966792E63004E6F746966696580
:1030780064004E6F74696669657200436865636BC6
:10308800004F4B20202020202020202020202020FE
:103098002020202020202020202020202020202028
:1030A80020004572726F723A20204E6F746966690B
:1030B800636174696F6E202020202020202020204A
:0830C80020200001D102F202F8
:00000001FF
